{
  "contractName": "TestMain",
  "abi": [
    {
      "anonymous": false,
      "inputs": [
        {
          "indexed": false,
          "internalType": "uint64",
          "name": "i",
          "type": "uint64"
        },
        {
          "indexed": false,
          "internalType": "uint256",
          "name": "alistlen",
          "type": "uint256"
        },
        {
          "indexed": false,
          "internalType": "enum PbA.MyEnum",
          "name": "e",
          "type": "uint8"
        },
        {
          "indexed": false,
          "internalType": "uint256",
          "name": "elistlen",
          "type": "uint256"
        }
      ],
      "name": "DecodedB",
      "type": "event"
    },
    {
      "anonymous": false,
      "inputs": [
        {
          "indexed": false,
          "internalType": "uint32",
          "name": "f1",
          "type": "uint32"
        },
        {
          "indexed": false,
          "internalType": "uint64",
          "name": "f2",
          "type": "uint64"
        },
        {
          "indexed": false,
          "internalType": "bool",
          "name": "f3",
          "type": "bool"
        },
        {
          "indexed": false,
          "internalType": "bytes",
          "name": "f4",
          "type": "bytes"
        },
        {
          "indexed": false,
          "internalType": "string",
          "name": "f5",
          "type": "string"
        },
        {
          "indexed": false,
          "internalType": "uint32[]",
          "name": "f6",
          "type": "uint32[]"
        },
        {
          "indexed": false,
          "internalType": "uint64[]",
          "name": "f7",
          "type": "uint64[]"
        }
      ],
      "name": "Msg1Part1",
      "type": "event"
    },
    {
      "anonymous": false,
      "inputs": [
        {
          "indexed": false,
          "internalType": "bool[]",
          "name": "f8",
          "type": "bool[]"
        },
        {
          "indexed": false,
          "internalType": "bytes",
          "name": "f9_0",
          "type": "bytes"
        },
        {
          "indexed": false,
          "internalType": "bytes",
          "name": "f9_1",
          "type": "bytes"
        },
        {
          "indexed": false,
          "internalType": "string",
          "name": "f10_0",
          "type": "string"
        },
        {
          "indexed": false,
          "internalType": "string",
          "name": "f10_1",
          "type": "string"
        }
      ],
      "name": "Msg1Part2",
      "type": "event"
    },
    {
      "anonymous": false,
      "inputs": [
        {
          "indexed": false,
          "internalType": "uint8",
          "name": "num",
          "type": "uint8"
        },
        {
          "indexed": false,
          "internalType": "address",
          "name": "addr",
          "type": "address"
        },
        {
          "indexed": false,
          "internalType": "address payable",
          "name": "addrPayable",
          "type": "address"
        },
        {
          "indexed": false,
          "internalType": "uint256",
          "name": "amt",
          "type": "uint256"
        },
        {
          "indexed": false,
          "internalType": "bytes32",
          "name": "h",
          "type": "bytes32"
        },
        {
          "indexed": false,
          "internalType": "uint8[]",
          "name": "nums",
          "type": "uint8[]"
        },
        {
          "indexed": false,
          "internalType": "address[]",
          "name": "addrs",
          "type": "address[]"
        },
        {
          "indexed": false,
          "internalType": "address payable[]",
          "name": "addrPayables",
          "type": "address[]"
        }
      ],
      "name": "Msg2Part1",
      "type": "event"
    },
    {
      "anonymous": false,
      "inputs": [
        {
          "indexed": false,
          "internalType": "uint256[]",
          "name": "amts",
          "type": "uint256[]"
        },
        {
          "indexed": false,
          "internalType": "bytes32[]",
          "name": "hs",
          "type": "bytes32[]"
        },
        {
          "indexed": false,
          "internalType": "uint256",
          "name": "ts",
          "type": "uint256"
        },
        {
          "indexed": false,
          "internalType": "uint256[]",
          "name": "tss",
          "type": "uint256[]"
        }
      ],
      "name": "Msg2Part2",
      "type": "event"
    },
    {
      "anonymous": false,
      "inputs": [
        {
          "indexed": false,
          "internalType": "uint256",
          "name": "enum1",
          "type": "uint256"
        },
        {
          "indexed": false,
          "internalType": "uint256",
          "name": "enum2",
          "type": "uint256"
        },
        {
          "indexed": false,
          "internalType": "uint256[]",
          "name": "enums",
          "type": "uint256[]"
        }
      ],
      "name": "Msg4Info",
      "type": "event"
    },
    {
      "constant": false,
      "inputs": [
        {
          "internalType": "bytes",
          "name": "raw",
          "type": "bytes"
        }
      ],
      "name": "testMsg1",
      "outputs": [],
      "payable": false,
      "stateMutability": "nonpayable",
      "type": "function"
    },
    {
      "constant": false,
      "inputs": [
        {
          "internalType": "bytes",
          "name": "raw",
          "type": "bytes"
        }
      ],
      "name": "testMsg2",
      "outputs": [],
      "payable": false,
      "stateMutability": "nonpayable",
      "type": "function"
    },
    {
      "constant": false,
      "inputs": [
        {
          "internalType": "bytes",
          "name": "raw",
          "type": "bytes"
        }
      ],
      "name": "testMsg3",
      "outputs": [],
      "payable": false,
      "stateMutability": "nonpayable",
      "type": "function"
    },
    {
      "constant": false,
      "inputs": [
        {
          "internalType": "bytes",
          "name": "raw",
          "type": "bytes"
        }
      ],
      "name": "testMsg4",
      "outputs": [],
      "payable": false,
      "stateMutability": "nonpayable",
      "type": "function"
    },
    {
      "constant": false,
      "inputs": [
        {
          "internalType": "bytes",
          "name": "raw",
          "type": "bytes"
        }
      ],
      "name": "testImport",
      "outputs": [],
      "payable": false,
      "stateMutability": "nonpayable",
      "type": "function"
    }
  ],
  "bytecode": "0x608060405234801561001057600080fd5b50614352806100206000396000f3fe608060405234801561001057600080fd5b50600436106100575760003560e01c80633f46787a1461005c5780636765246214610117578063b347db9e146101d2578063e1229f801461028d578063f44cecd314610348575b600080fd5b6101156004803603602081101561007257600080fd5b810190808035906020019064010000000081111561008f57600080fd5b8201836020820111156100a157600080fd5b803590602001918460018302840111640100000000831117156100c357600080fd5b91908080601f016020809104026020016040519081016040528093929190818152602001838380828437600081840152601f19601f820116905080830192505050505050509192919290505050610403565b005b6101d06004803603602081101561012d57600080fd5b810190808035906020019064010000000081111561014a57600080fd5b82018360208201111561015c57600080fd5b8035906020019184600183028401116401000000008311171561017e57600080fd5b91908080601f016020809104026020016040519081016040528093929190818152602001838380828437600081840152601f19601f8201169050808301925050505050505091929192905050506104a1565b005b61028b600480360360208110156101e857600080fd5b810190808035906020019064010000000081111561020557600080fd5b82018360208201111561021757600080fd5b8035906020019184600183028401116401000000008311171561023957600080fd5b91908080601f016020809104026020016040519081016040528093929190818152602001838380828437600081840152601f19601f82011690508083019250505050505050919291929050505061078e565b005b610346600480360360208110156102a357600080fd5b81019080803590602001906401000000008111156102c057600080fd5b8201836020820111156102d257600080fd5b803590602001918460018302840111640100000000831117156102f457600080fd5b91908080601f016020809104026020016040519081016040528093929190818152602001838380828437600081840152601f19601f8201169050808301925050505050505091929192905050506108dd565b005b6104016004803603602081101561035e57600080fd5b810190808035906020019064010000000081111561037b57600080fd5b82018360208201111561038d57600080fd5b803590602001918460018302840111640100000000831117156103af57600080fd5b91908080601f016020809104026020016040519081016040528093929190818152602001838380828437600081840152601f19601f8201169050808301925050505050505091929192905050506123eb565b005b61040b614035565b61041482612889565b90507f95de01968807acdcfc39ced6de190f54e42b43d40a75e8f1c5697a2361c19e708160000151600001518260200151518360400151846060015151604051808567ffffffffffffffff1667ffffffffffffffff16815260200184815260200183600181111561048157fe5b60ff16815260200182815260200194505050505060405180910390a15050565b6104a961406e565b6104b282612a82565b90507fd7f053ef20db800cf5a120f3551ffeb1b2613600f30cc5bee7d627c18c45c8a7816000015182602001518360400151846060015185608001518660a001518760c001518860e00151604051808960ff1660ff1681526020018873ffffffffffffffffffffffffffffffffffffffff1673ffffffffffffffffffffffffffffffffffffffff1681526020018773ffffffffffffffffffffffffffffffffffffffff1673ffffffffffffffffffffffffffffffffffffffff168152602001868152602001858152602001806020018060200180602001848103845287818151815260200191508051906020019060200280838360005b838110156105c45780820151818401526020810190506105a9565b50505050905001848103835286818151815260200191508051906020019060200280838360005b838110156106065780820151818401526020810190506105eb565b50505050905001848103825285818151815260200191508051906020019060200280838360005b8381101561064857808201518184015260208101905061062d565b505050509050019b50505050505050505050505060405180910390a17ff192a726790c34c6c99392a80c43d7622a41a6d14cf8d34a60844f48019c9b7181610100015182610120015183610140015184610160015160405180806020018060200185815260200180602001848103845288818151815260200191508051906020019060200280838360005b838110156106ee5780820151818401526020810190506106d3565b50505050905001848103835287818151815260200191508051906020019060200280838360005b83811015610730578082015181840152602081019050610715565b50505050905001848103825285818151815260200191508051906020019060200280838360005b83811015610772578082015181840152602081019050610757565b5050505090500197505050505050505060405180910390a15050565b610796614101565b61079f82613056565b905060608160400151516040519080825280602002602001820160405280156107d75781602001602082028038833980820191505090505b50905060008090505b815181101561083157826040015181815181106107f957fe5b6020026020010151600281111561080c57fe5b82828151811061081857fe5b60200260200101818152505080806001019150506107e0565b507f270906b58bf451e3b3e7bd3dbec256b4a65ec2f2a243272036fbc80e995680dc8260000151600281111561086357fe5b8360200151600281111561087357fe5b836040518084815260200183815260200180602001828103825283818151815260200191508051906020019060200280838360005b838110156108c35780820151818401526020810190506108a8565b5050505090500194505050505060405180910390a1505050565b6108e5614138565b6108ee82613171565b90507fe6733739b8e733cb3dac7eafe82bb5412fe768ab1b2988289c034ce83c1a8409816000015160000151826000015160200151836000015160400151846000015160600151856000015160800151866000015160a00151876000015160c00151604051808863ffffffff1663ffffffff1681526020018767ffffffffffffffff1667ffffffffffffffff1681526020018615151515815260200180602001806020018060200180602001858103855289818151815260200191508051906020019080838360005b838110156109d25780820151818401526020810190506109b7565b50505050905090810190601f1680156109ff5780820380516001836020036101000a031916815260200191505b50858103845288818151815260200191508051906020019080838360005b83811015610a38578082015181840152602081019050610a1d565b50505050905090810190601f168015610a655780820380516001836020036101000a031916815260200191505b50858103835287818151815260200191508051906020019060200280838360005b83811015610aa1578082015181840152602081019050610a86565b50505050905001858103825286818151815260200191508051906020019060200280838360005b83811015610ae3578082015181840152602081019050610ac8565b505050509050019b50505050505050505050505060405180910390a17f0484247d4678d4622b505b2a6f2cb6d7ed95f576e7d647bc4acf71019599936e816000015160e0015182600001516101000151600081518110610b3f57fe5b602002602001015183600001516101000151600181518110610b5d57fe5b602002602001015184600001516101200151600081518110610b7b57fe5b602002602001015185600001516101200151600181518110610b9957fe5b602002602001015160405180806020018060200180602001806020018060200186810386528b818151815260200191508051906020019060200280838360005b83811015610bf4578082015181840152602081019050610bd9565b5050505090500186810385528a818151815260200191508051906020019080838360005b83811015610c33578082015181840152602081019050610c18565b50505050905090810190601f168015610c605780820380516001836020036101000a031916815260200191505b50868103845289818151815260200191508051906020019080838360005b83811015610c99578082015181840152602081019050610c7e565b50505050905090810190601f168015610cc65780820380516001836020036101000a031916815260200191505b50868103835288818151815260200191508051906020019080838360005b83811015610cff578082015181840152602081019050610ce4565b50505050905090810190601f168015610d2c5780820380516001836020036101000a031916815260200191505b50868103825287818151815260200191508051906020019080838360005b83811015610d65578082015181840152602081019050610d4a565b50505050905090810190601f168015610d925780820380516001836020036101000a031916815260200191505b509a505050505050505050505060405180910390a17fd7f053ef20db800cf5a120f3551ffeb1b2613600f30cc5bee7d627c18c45c8a7816020015160000151826020015160200151836020015160400151846020015160600151856020015160800151866020015160a00151876020015160c00151886020015160e00151604051808960ff1660ff1681526020018873ffffffffffffffffffffffffffffffffffffffff1673ffffffffffffffffffffffffffffffffffffffff1681526020018773ffffffffffffffffffffffffffffffffffffffff1673ffffffffffffffffffffffffffffffffffffffff168152602001868152602001858152602001806020018060200180602001848103845287818151815260200191508051906020019060200280838360005b83811015610ed7578082015181840152602081019050610ebc565b50505050905001848103835286818151815260200191508051906020019060200280838360005b83811015610f19578082015181840152602081019050610efe565b50505050905001848103825285818151815260200191508051906020019060200280838360005b83811015610f5b578082015181840152602081019050610f40565b505050509050019b50505050505050505050505060405180910390a17ff192a726790c34c6c99392a80c43d7622a41a6d14cf8d34a60844f48019c9b718160200151610100015182602001516101200151836020015161014001518460200151610160015160405180806020018060200185815260200180602001848103845288818151815260200191508051906020019060200280838360005b83811015611011578082015181840152602081019050610ff6565b50505050905001848103835287818151815260200191508051906020019060200280838360005b83811015611053578082015181840152602081019050611038565b50505050905001848103825285818151815260200191508051906020019060200280838360005b8381101561109557808201518184015260208101905061107a565b5050505090500197505050505050505060405180910390a17fe6733739b8e733cb3dac7eafe82bb5412fe768ab1b2988289c034ce83c1a840981604001516000815181106110df57fe5b60200260200101516000015182604001516000815181106110fc57fe5b602002602001015160200151836040015160008151811061111957fe5b602002602001015160400151846040015160008151811061113657fe5b602002602001015160600151856040015160008151811061115357fe5b602002602001015160800151866040015160008151811061117057fe5b602002602001015160a00151876040015160008151811061118d57fe5b602002602001015160c00151604051808863ffffffff1663ffffffff1681526020018767ffffffffffffffff1667ffffffffffffffff1681526020018615151515815260200180602001806020018060200180602001858103855289818151815260200191508051906020019080838360005b8381101561121b578082015181840152602081019050611200565b50505050905090810190601f1680156112485780820380516001836020036101000a031916815260200191505b50858103845288818151815260200191508051906020019080838360005b83811015611281578082015181840152602081019050611266565b50505050905090810190601f1680156112ae5780820380516001836020036101000a031916815260200191505b50858103835287818151815260200191508051906020019060200280838360005b838110156112ea5780820151818401526020810190506112cf565b50505050905001858103825286818151815260200191508051906020019060200280838360005b8381101561132c578082015181840152602081019050611311565b505050509050019b50505050505050505050505060405180910390a17f0484247d4678d4622b505b2a6f2cb6d7ed95f576e7d647bc4acf71019599936e816040015160008151811061137a57fe5b602002602001015160e00151826040015160008151811061139757fe5b602002602001015161010001516000815181106113b057fe5b602002602001015183604001516000815181106113c957fe5b602002602001015161010001516001815181106113e257fe5b602002602001015184604001516000815181106113fb57fe5b6020026020010151610120015160008151811061141457fe5b6020026020010151856040015160008151811061142d57fe5b6020026020010151610120015160018151811061144657fe5b602002602001015160405180806020018060200180602001806020018060200186810386528b818151815260200191508051906020019060200280838360005b838110156114a1578082015181840152602081019050611486565b5050505090500186810385528a818151815260200191508051906020019080838360005b838110156114e05780820151818401526020810190506114c5565b50505050905090810190601f16801561150d5780820380516001836020036101000a031916815260200191505b50868103845289818151815260200191508051906020019080838360005b8381101561154657808201518184015260208101905061152b565b50505050905090810190601f1680156115735780820380516001836020036101000a031916815260200191505b50868103835288818151815260200191508051906020019080838360005b838110156115ac578082015181840152602081019050611591565b50505050905090810190601f1680156115d95780820380516001836020036101000a031916815260200191505b50868103825287818151815260200191508051906020019080838360005b838110156116125780820151818401526020810190506115f7565b50505050905090810190601f16801561163f5780820380516001836020036101000a031916815260200191505b509a505050505050505050505060405180910390a17fe6733739b8e733cb3dac7eafe82bb5412fe768ab1b2988289c034ce83c1a8409816040015160018151811061168657fe5b60200260200101516000015182604001516001815181106116a357fe5b60200260200101516020015183604001516001815181106116c057fe5b60200260200101516040015184604001516001815181106116dd57fe5b60200260200101516060015185604001516001815181106116fa57fe5b602002602001015160800151866040015160018151811061171757fe5b602002602001015160a00151876040015160018151811061173457fe5b602002602001015160c00151604051808863ffffffff1663ffffffff1681526020018767ffffffffffffffff1667ffffffffffffffff1681526020018615151515815260200180602001806020018060200180602001858103855289818151815260200191508051906020019080838360005b838110156117c25780820151818401526020810190506117a7565b50505050905090810190601f1680156117ef5780820380516001836020036101000a031916815260200191505b50858103845288818151815260200191508051906020019080838360005b8381101561182857808201518184015260208101905061180d565b50505050905090810190601f1680156118555780820380516001836020036101000a031916815260200191505b50858103835287818151815260200191508051906020019060200280838360005b83811015611891578082015181840152602081019050611876565b50505050905001858103825286818151815260200191508051906020019060200280838360005b838110156118d35780820151818401526020810190506118b8565b505050509050019b50505050505050505050505060405180910390a17f0484247d4678d4622b505b2a6f2cb6d7ed95f576e7d647bc4acf71019599936e816040015160018151811061192157fe5b602002602001015160e00151826040015160018151811061193e57fe5b6020026020010151610100015160008151811061195757fe5b6020026020010151836040015160018151811061197057fe5b6020026020010151610100015160018151811061198957fe5b602002602001015184604001516001815181106119a257fe5b602002602001015161012001516000815181106119bb57fe5b602002602001015185604001516001815181106119d457fe5b602002602001015161012001516001815181106119ed57fe5b602002602001015160405180806020018060200180602001806020018060200186810386528b818151815260200191508051906020019060200280838360005b83811015611a48578082015181840152602081019050611a2d565b5050505090500186810385528a818151815260200191508051906020019080838360005b83811015611a87578082015181840152602081019050611a6c565b50505050905090810190601f168015611ab45780820380516001836020036101000a031916815260200191505b50868103845289818151815260200191508051906020019080838360005b83811015611aed578082015181840152602081019050611ad2565b50505050905090810190601f168015611b1a5780820380516001836020036101000a031916815260200191505b50868103835288818151815260200191508051906020019080838360005b83811015611b53578082015181840152602081019050611b38565b50505050905090810190601f168015611b805780820380516001836020036101000a031916815260200191505b50868103825287818151815260200191508051906020019080838360005b83811015611bb9578082015181840152602081019050611b9e565b50505050905090810190601f168015611be65780820380516001836020036101000a031916815260200191505b509a505050505050505050505060405180910390a17fd7f053ef20db800cf5a120f3551ffeb1b2613600f30cc5bee7d627c18c45c8a78160600151600081518110611c2d57fe5b6020026020010151600001518260600151600081518110611c4a57fe5b6020026020010151602001518360600151600081518110611c6757fe5b6020026020010151604001518460600151600081518110611c8457fe5b6020026020010151606001518560600151600081518110611ca157fe5b6020026020010151608001518660600151600081518110611cbe57fe5b602002602001015160a001518760600151600081518110611cdb57fe5b602002602001015160c001518860600151600081518110611cf857fe5b602002602001015160e00151604051808960ff1660ff1681526020018873ffffffffffffffffffffffffffffffffffffffff1673ffffffffffffffffffffffffffffffffffffffff1681526020018773ffffffffffffffffffffffffffffffffffffffff1673ffffffffffffffffffffffffffffffffffffffff168152602001868152602001858152602001806020018060200180602001848103845287818151815260200191508051906020019060200280838360005b83811015611dcb578082015181840152602081019050611db0565b50505050905001848103835286818151815260200191508051906020019060200280838360005b83811015611e0d578082015181840152602081019050611df2565b50505050905001848103825285818151815260200191508051906020019060200280838360005b83811015611e4f578082015181840152602081019050611e34565b505050509050019b50505050505050505050505060405180910390a17ff192a726790c34c6c99392a80c43d7622a41a6d14cf8d34a60844f48019c9b718160600151600081518110611e9d57fe5b602002602001015161010001518260600151600081518110611ebb57fe5b602002602001015161012001518360600151600081518110611ed957fe5b602002602001015161014001518460600151600081518110611ef757fe5b6020026020010151610160015160405180806020018060200185815260200180602001848103845288818151815260200191508051906020019060200280838360005b83811015611f55578082015181840152602081019050611f3a565b50505050905001848103835287818151815260200191508051906020019060200280838360005b83811015611f97578082015181840152602081019050611f7c565b50505050905001848103825285818151815260200191508051906020019060200280838360005b83811015611fd9578082015181840152602081019050611fbe565b5050505090500197505050505050505060405180910390a17fd7f053ef20db800cf5a120f3551ffeb1b2613600f30cc5bee7d627c18c45c8a7816060015160018151811061202357fe5b602002602001015160000151826060015160018151811061204057fe5b602002602001015160200151836060015160018151811061205d57fe5b602002602001015160400151846060015160018151811061207a57fe5b602002602001015160600151856060015160018151811061209757fe5b60200260200101516080015186606001516001815181106120b457fe5b602002602001015160a0015187606001516001815181106120d157fe5b602002602001015160c0015188606001516001815181106120ee57fe5b602002602001015160e00151604051808960ff1660ff1681526020018873ffffffffffffffffffffffffffffffffffffffff1673ffffffffffffffffffffffffffffffffffffffff1681526020018773ffffffffffffffffffffffffffffffffffffffff1673ffffffffffffffffffffffffffffffffffffffff168152602001868152602001858152602001806020018060200180602001848103845287818151815260200191508051906020019060200280838360005b838110156121c15780820151818401526020810190506121a6565b50505050905001848103835286818151815260200191508051906020019060200280838360005b838110156122035780820151818401526020810190506121e8565b50505050905001848103825285818151815260200191508051906020019060200280838360005b8381101561224557808201518184015260208101905061222a565b505050509050019b50505050505050505050505060405180910390a17ff192a726790c34c6c99392a80c43d7622a41a6d14cf8d34a60844f48019c9b71816060015160018151811061229357fe5b6020026020010151610100015182606001516001815181106122b157fe5b6020026020010151610120015183606001516001815181106122cf57fe5b6020026020010151610140015184606001516001815181106122ed57fe5b6020026020010151610160015160405180806020018060200185815260200180602001848103845288818151815260200191508051906020019060200280838360005b8381101561234b578082015181840152602081019050612330565b50505050905001848103835287818151815260200191508051906020019060200280838360005b8381101561238d578082015181840152602081019050612372565b50505050905001848103825285818151815260200191508051906020019060200280838360005b838110156123cf5780820151818401526020810190506123b4565b5050505090500197505050505050505060405180910390a15050565b6123f361416c565b6123fc82613407565b90507fe6733739b8e733cb3dac7eafe82bb5412fe768ab1b2988289c034ce83c1a8409816000015182602001518360400151846060015185608001518660a001518760c00151604051808863ffffffff1663ffffffff1681526020018767ffffffffffffffff1667ffffffffffffffff1681526020018615151515815260200180602001806020018060200180602001858103855289818151815260200191508051906020019080838360005b838110156124c45780820151818401526020810190506124a9565b50505050905090810190601f1680156124f15780820380516001836020036101000a031916815260200191505b50858103845288818151815260200191508051906020019080838360005b8381101561252a57808201518184015260208101905061250f565b50505050905090810190601f1680156125575780820380516001836020036101000a031916815260200191505b50858103835287818151815260200191508051906020019060200280838360005b83811015612593578082015181840152602081019050612578565b50505050905001858103825286818151815260200191508051906020019060200280838360005b838110156125d55780820151818401526020810190506125ba565b505050509050019b50505050505050505050505060405180910390a17f0484247d4678d4622b505b2a6f2cb6d7ed95f576e7d647bc4acf71019599936e8160e0015182610100015160008151811061262957fe5b602002602001015183610100015160018151811061264357fe5b602002602001015184610120015160008151811061265d57fe5b602002602001015185610120015160018151811061267757fe5b602002602001015160405180806020018060200180602001806020018060200186810386528b818151815260200191508051906020019060200280838360005b838110156126d25780820151818401526020810190506126b7565b5050505090500186810385528a818151815260200191508051906020019080838360005b838110156127115780820151818401526020810190506126f6565b50505050905090810190601f16801561273e5780820380516001836020036101000a031916815260200191505b50868103845289818151815260200191508051906020019080838360005b8381101561277757808201518184015260208101905061275c565b50505050905090810190601f1680156127a45780820380516001836020036101000a031916815260200191505b50868103835288818151815260200191508051906020019080838360005b838110156127dd5780820151818401526020810190506127c2565b50505050905090810190601f16801561280a5780820380516001836020036101000a031916815260200191505b50868103825287818151815260200191508051906020019080838360005b83811015612843578082015181840152602081019050612828565b50505050905090810190601f1680156128705780820380516001836020036101000a031916815260200191505b509a505050505050505050505060405180910390a15050565b612891614035565b6128996141d1565b6128a283613782565b905060606128ba6004836137a390919063ffffffff16565b9050806002815181106128c957fe5b602002602001015160405190808252806020026020018201604052801561290a57816020015b6128f76141eb565b8152602001906001900390816128ef5790505b50836020018190525060008160028151811061292257fe5b6020026020010181815250506000805b61293b84613848565b15612a79576129498461385d565b809250819350505060001561295d57612a74565b60018214156129845761297761297285613891565b61394a565b8560000181905250612a73565b60028214156129f25761299e61299985613891565b61394a565b8560200151846002815181106129b057fe5b6020026020010151815181106129c257fe5b6020026020010181905250826002815181106129da57fe5b60200260200101805180919060010181525050612a72565b6003821415612a3557612a04846139ec565b6001811115612a0f57fe5b85604001906001811115612a1f57fe5b90816001811115612a2c57fe5b81525050612a71565b6004821415612a5c57612a4f612a4a85613a70565b613b96565b8560600181905250612a70565b612a6f8185613c3c90919063ffffffff16565b5b5b5b5b5b612932565b50505050919050565b612a8a61406e565b612a926141d1565b612a9b83613782565b90506060612ab3600c836137a390919063ffffffff16565b905080600781518110612ac257fe5b6020026020010151604051908082528060200260200182016040528015612af85781602001602082028038833980820191505090505b508360c00181905250600081600781518110612b1057fe5b60200260200101818152505080600881518110612b2957fe5b6020026020010151604051908082528060200260200182016040528015612b5f5781602001602082028038833980820191505090505b508360e00181905250600081600881518110612b7757fe5b60200260200101818152505080600981518110612b9057fe5b6020026020010151604051908082528060200260200182016040528015612bc65781602001602082028038833980820191505090505b50836101000181905250600081600981518110612bdf57fe5b60200260200101818152505080600a81518110612bf857fe5b6020026020010151604051908082528060200260200182016040528015612c2e5781602001602082028038833980820191505090505b50836101200181905250600081600a81518110612c4757fe5b6020026020010181815250506000805b612c6084613848565b1561304d57612c6e8461385d565b8092508193505050600015612c8257613048565b6001821415612caa57612c94846139ec565b856000019060ff16908160ff1681525050613047565b6002821415612d0057612cc4612cbf85613891565b613ccc565b856020019073ffffffffffffffffffffffffffffffffffffffff16908173ffffffffffffffffffffffffffffffffffffffff1681525050613046565b6003821415612d5657612d1a612d1585613891565b613cde565b856040019073ffffffffffffffffffffffffffffffffffffffff16908173ffffffffffffffffffffffffffffffffffffffff1681525050613045565b6004821415612d7e57612d70612d6b85613891565b613d09565b856060018181525050613044565b6005821415612da657612d98612d9385613891565b613d24565b856080018181525050613043565b6006821415612dcd57612dc0612dbb85613a70565b613d40565b8560a00181905250613042565b6007821415612e6a57612de7612de285613891565b613ccc565b8560c0015184600781518110612df957fe5b602002602001015181518110612e0b57fe5b602002602001019073ffffffffffffffffffffffffffffffffffffffff16908173ffffffffffffffffffffffffffffffffffffffff168152505082600781518110612e5257fe5b60200260200101805180919060010181525050613041565b6008821415612f0757612e84612e7f85613891565b613cde565b8560e0015184600881518110612e9657fe5b602002602001015181518110612ea857fe5b602002602001019073ffffffffffffffffffffffffffffffffffffffff16908173ffffffffffffffffffffffffffffffffffffffff168152505082600881518110612eef57fe5b60200260200101805180919060010181525050613040565b6009821415612f7757612f21612f1c85613891565b613d09565b85610100015184600981518110612f3457fe5b602002602001015181518110612f4657fe5b60200260200101818152505082600981518110612f5f57fe5b6020026020010180518091906001018152505061303f565b600a821415612fe757612f91612f8c85613891565b613d24565b85610120015184600a81518110612fa457fe5b602002602001015181518110612fb657fe5b60200260200101818152505082600a81518110612fcf57fe5b6020026020010180518091906001018152505061303e565b600b82141561300857612ff9846139ec565b8561014001818152505061303d565b600c8214156130285761301a84613a70565b85610160018190525061303c565b61303b8185613c3c90919063ffffffff16565b5b5b5b5b5b5b5b5b5b5b5b5b5b612c57565b50505050919050565b61305e614101565b6130666141d1565b61306f83613782565b90506000805b61307e83613848565b156131695761308c8361385d565b80925081935050506000156130a057613164565b60018214156130e3576130b2836139ec565b60028111156130bd57fe5b846000019060028111156130cd57fe5b908160028111156130da57fe5b81525050613163565b6002821415613126576130f5836139ec565b600281111561310057fe5b8460200190600281111561311057fe5b9081600281111561311d57fe5b81525050613162565b600382141561314d5761314061313b84613a70565b613dcb565b8460400181905250613161565b6131608184613c3c90919063ffffffff16565b5b5b5b5b613075565b505050919050565b613179614138565b6131816141d1565b61318a83613782565b905060606131a26004836137a390919063ffffffff16565b9050806003815181106131b157fe5b60200260200101516040519080825280602002602001820160405280156131f257816020015b6131df614208565b8152602001906001900390816131d75790505b50836040018190525060008160038151811061320a57fe5b6020026020010181815250508060048151811061322357fe5b602002602001015160405190808252806020026020018201604052801561326457816020015b61325161426d565b8152602001906001900390816132495790505b50836060018190525060008160048151811061327c57fe5b6020026020010181815250506000805b61329584613848565b156133fe576132a38461385d565b80925081935050506000156132b7576133f9565b60018214156132de576132d16132cc85613891565b613407565b85600001819052506133f8565b6002821415613305576132f86132f385613891565b612a82565b85602001819052506133f7565b60038214156133735761331f61331a85613891565b613407565b85604001518460038151811061333157fe5b60200260200101518151811061334357fe5b60200260200101819052508260038151811061335b57fe5b602002602001018051809190600101815250506133f6565b60048214156133e15761338d61338885613891565b612a82565b85606001518460048151811061339f57fe5b6020026020010151815181106133b157fe5b6020026020010181905250826004815181106133c957fe5b602002602001018051809190600101815250506133f5565b6133f48185613c3c90919063ffffffff16565b5b5b5b5b5b61328c565b50505050919050565b61340f61416c565b6134176141d1565b61342083613782565b90506060613438600a836137a390919063ffffffff16565b90508060098151811061344757fe5b602002602001015160405190808252806020026020018201604052801561348257816020015b606081526020019060019003908161346d5790505b5083610100018190525060008160098151811061349b57fe5b60200260200101818152505080600a815181106134b457fe5b60200260200101516040519080825280602002602001820160405280156134ef57816020015b60608152602001906001900390816134da5790505b50836101200181905250600081600a8151811061350857fe5b6020026020010181815250506000805b61352184613848565b156137795761352f8461385d565b809250819350505060001561354357613774565b600182141561357157613555846139ec565b856000019063ffffffff16908163ffffffff1681525050613773565b60028214156135a757613583846139ec565b856020019067ffffffffffffffff16908167ffffffffffffffff1681525050613772565b60038214156135d5576135c16135bc856139ec565b613e71565b856040019015159081151581525050613771565b60048214156135f4576135e784613891565b8560600181905250613770565b60058214156136135761360684613891565b856080018190525061376f565b600682141561363a5761362d61362885613a70565b613e7e565b8560a0018190525061376e565b60078214156136615761365461364f85613a70565b613f0f565b8560c0018190525061376d565b60088214156136885761367b61367685613a70565b613fa8565b8560e0018190525061376c565b60098214156136ef5761369a84613891565b856101000151846009815181106136ad57fe5b6020026020010151815181106136bf57fe5b6020026020010181905250826009815181106136d757fe5b6020026020010180518091906001018152505061376b565b600a8214156137565761370184613891565b85610120015184600a8151811061371457fe5b60200260200101518151811061372657fe5b602002602001018190525082600a8151811061373e57fe5b6020026020010180518091906001018152505061376a565b6137698185613c3c90919063ffffffff16565b5b5b5b5b5b5b5b5b5b5b5b613518565b50505050919050565b61378a6141d1565b8181602001819052506000816000018181525050919050565b6060600083600001519050600183016040519080825280602002602001820160405280156137e05781602001602082028038833980820191505090505b5091506000805b6137f086613848565b15613835576137fe8661385d565b8092508193505050600184838151811061381457fe5b6020026020010181815101915081815250506138308682613c3c565b6137e7565b8286600001818152505050505092915050565b60008160200151518260000151109050919050565b600080600061386b846139ec565b90506008818161387757fe5b04925060078116600581111561388957fe5b915050915091565b6060600061389e836139ec565b905060008184600001510190508360200151518111156138bd57600080fd5b816040519080825280601f01601f1916602001820160405280156138f05781602001600182028038833980820191505090505b50925060608460200151905060008086600001519050602086019150806020840101905060008090505b8581101561393557808201518184015260208101905061391a565b50838760000181815250505050505050919050565b613952614300565b61395a6141d1565b61396383613782565b90506000805b61397283613848565b156139e4576139808361385d565b8092508193505050600015613994576139df565b60018214156139ca576139a6836139ec565b846000019067ffffffffffffffff16908167ffffffffffffffff16815250506139de565b6139dd8184613c3c90919063ffffffff16565b5b5b613969565b505050919050565b60008060608360200151905083600001519250826020820101519150600080935060008090505b600a811015613a655783811a915060078102607f8316901b851794506000608083161415613a5a576001810186600001818151019150818152505084945050505050613a6b565b806001019050613a13565b50600080fd5b919050565b60606000613a7d836139ec565b90506000818460000151019050836020015151811115613a9c57600080fd5b606082604051908082528060200260200182016040528015613acd5781602001602082028038833980820191505090505b50905060008090505b8286600001511015613b1057613aeb866139ec565b828281518110613af757fe5b6020026020010181815250508080600101915050613ad6565b80604051908082528060200260200182016040528015613b3f5781602001602082028038833980820191505090505b50945060008090505b81811015613b8957828181518110613b5c57fe5b6020026020010151868281518110613b7057fe5b6020026020010181815250508080600101915050613b48565b5084945050505050919050565b60608151604051908082528060200260200182016040528015613bc85781602001602082028038833980820191505090505b50905060008090505b8151811015613c3657828181518110613be657fe5b60200260200101516001811115613bf957fe5b828281518110613c0557fe5b60200260200101906001811115613c1857fe5b90816001811115613c2557fe5b815250508080600101915050613bd1565b50919050565b60006005811115613c4957fe5b816005811115613c5557fe5b1415613c6a57613c64826139ec565b50613cc8565b60026005811115613c7757fe5b816005811115613c8357fe5b1415613cc2576000613c94836139ec565b90508083600001818151019150818152505082602001515183600001511115613cbc57600080fd5b50613cc7565b600080fd5b5b5050565b6000613cd782613cde565b9050919050565b60006014825114613cee57600080fd5b6c010000000000000000000000006020830151049050919050565b600060208201519050815160200360080281901c9050919050565b60006020825114613d3457600080fd5b60208201519050919050565b60608151604051908082528060200260200182016040528015613d725781602001602082028038833980820191505090505b50905060008090505b8151811015613dc557828181518110613d9057fe5b6020026020010151828281518110613da457fe5b602002602001019060ff16908160ff16815250508080600101915050613d7b565b50919050565b60608151604051908082528060200260200182016040528015613dfd5781602001602082028038833980820191505090505b50905060008090505b8151811015613e6b57828181518110613e1b57fe5b60200260200101516002811115613e2e57fe5b828281518110613e3a57fe5b60200260200101906002811115613e4d57fe5b90816002811115613e5a57fe5b815250508080600101915050613e06565b50919050565b6000808214159050919050565b60608151604051908082528060200260200182016040528015613eb05781602001602082028038833980820191505090505b50905060008090505b8151811015613f0957828181518110613ece57fe5b6020026020010151828281518110613ee257fe5b602002602001019063ffffffff16908163ffffffff16815250508080600101915050613eb9565b50919050565b60608151604051908082528060200260200182016040528015613f415781602001602082028038833980820191505090505b50905060008090505b8151811015613fa257828181518110613f5f57fe5b6020026020010151828281518110613f7357fe5b602002602001019067ffffffffffffffff16908167ffffffffffffffff16815250508080600101915050613f4a565b50919050565b60608151604051908082528060200260200182016040528015613fda5781602001602082028038833980820191505090505b50905060008090505b815181101561402f576000838281518110613ffa57fe5b6020026020010151141582828151811061401057fe5b6020026020010190151590811515815250508080600101915050613fe3565b50919050565b60405180608001604052806140486141eb565b8152602001606081526020016000600181111561406157fe5b8152602001606081525090565b604051806101800160405280600060ff168152602001600073ffffffffffffffffffffffffffffffffffffffff168152602001600073ffffffffffffffffffffffffffffffffffffffff1681526020016000815260200160008019168152602001606081526020016060815260200160608152602001606081526020016060815260200160008152602001606081525090565b60405180606001604052806000600281111561411957fe5b81526020016000600281111561412b57fe5b8152602001606081525090565b604051806080016040528061414b614208565b815260200161415861426d565b815260200160608152602001606081525090565b604051806101400160405280600063ffffffff168152602001600067ffffffffffffffff168152602001600015158152602001606081526020016060815260200160608152602001606081526020016060815260200160608152602001606081525090565b604051806040016040528060008152602001606081525090565b6040518060200160405280600067ffffffffffffffff1681525090565b604051806101400160405280600063ffffffff168152602001600067ffffffffffffffff168152602001600015158152602001606081526020016060815260200160608152602001606081526020016060815260200160608152602001606081525090565b604051806101800160405280600060ff168152602001600073ffffffffffffffffffffffffffffffffffffffff168152602001600073ffffffffffffffffffffffffffffffffffffffff1681526020016000815260200160008019168152602001606081526020016060815260200160608152602001606081526020016060815260200160008152602001606081525090565b6040518060200160405280600067ffffffffffffffff168152509056fea265627a7a72315820636d7343fd7b4c40c6f39b880da08a563ca9e1c210ad591f0d33eebc056ab8a164736f6c63430005100032",
  "source": "pragma solidity ^0.5.0;\n\nimport \"./lib/PbMytest.sol\";\nimport \"./lib/PbA.sol\";\nimport \"./lib/PbB.sol\";\n\ncontract TestMain {\n    event Msg1Part1(\n        uint32 f1,\n        uint64 f2,\n        bool f3,\n        bytes f4,\n        string f5,\n        uint32[] f6,\n        uint64[] f7\n    );\n\n    event Msg1Part2(\n        bool[] f8,\n        bytes f9_0,\n        bytes f9_1,\n        string f10_0,\n        string f10_1\n    );\n\n    event Msg2Part1(\n        uint8 num,\n        address addr,\n        address payable addrPayable,\n        uint256 amt,\n        bytes32 h,\n        uint8[] nums,\n        address[] addrs,\n        address payable[] addrPayables\n    );\n\n    event Msg2Part2(\n        uint256[] amts,\n        bytes32[] hs,\n        uint ts,\n        uint[] tss\n    );\n\n    event Msg4Info(\n        uint enum1,\n        uint enum2,\n        uint[] enums\n    );\n\n    event DecodedB (\n        uint64 i,\n        uint alistlen,\n        PbA.MyEnum e,\n        uint elistlen\n    );\n\n    function testMsg1(bytes memory raw) public {\n        PbMytest.Msg1 memory m = PbMytest.decMsg1(raw);\n\n        emit Msg1Part1(\n            m.f1, \n            m.f2, \n            m.f3,\n            m.f4,\n            m.f5,\n            m.f6, \n            m.f7\n        );\n\n        emit Msg1Part2(\n            m.f8, \n            m.f9[0],\n            m.f9[1],\n            m.f10[0],\n            m.f10[1]\n        );\n    }\n\n    function testMsg2(bytes memory raw) public {\n        PbMytest.Msg2 memory m = PbMytest.decMsg2(raw);\n\n        emit Msg2Part1(\n            m.num,\n            m.addr,\n            m.addrPayable,\n            m.amt,\n            m.hash,\n            m.nums,\n            m.addrs,\n            m.addrPayables\n        );\n\n        emit Msg2Part2(\n            m.amts,\n            m.hashes,\n            m.ts,\n            m.tss\n        );\n    }\n\n    function testMsg3(bytes memory raw) public {\n        PbMytest.Msg3 memory m = PbMytest.decMsg3(raw);\n\n        // emit events of m1\n        emit Msg1Part1(\n            m.m1.f1, \n            m.m1.f2, \n            m.m1.f3,\n            m.m1.f4,\n            m.m1.f5,\n            m.m1.f6, \n            m.m1.f7\n        );\n\n        emit Msg1Part2( \n            m.m1.f8, \n            m.m1.f9[0],\n            m.m1.f9[1],\n            m.m1.f10[0],\n            m.m1.f10[1]\n        );\n\n        // emit events of m2\n        emit Msg2Part1(\n            m.m2.num,\n            m.m2.addr,\n            m.m2.addrPayable,\n            m.m2.amt,\n            m.m2.hash,\n            m.m2.nums,\n            m.m2.addrs,\n            m.m2.addrPayables\n        );\n\n        emit Msg2Part2(\n            m.m2.amts,\n            m.m2.hashes,\n            m.m2.ts,\n            m.m2.tss\n        );\n\n        // emit events of m1s[0]\n        emit Msg1Part1(\n            m.m1s[0].f1, \n            m.m1s[0].f2, \n            m.m1s[0].f3,\n            m.m1s[0].f4,\n            m.m1s[0].f5,\n            m.m1s[0].f6, \n            m.m1s[0].f7\n        );\n\n        emit Msg1Part2(\n            m.m1s[0].f8, \n            m.m1s[0].f9[0],\n            m.m1s[0].f9[1],\n            m.m1s[0].f10[0],\n            m.m1s[0].f10[1]\n        );\n\n        // emit events of m1s[1]\n        emit Msg1Part1(\n            m.m1s[1].f1, \n            m.m1s[1].f2, \n            m.m1s[1].f3,\n            m.m1s[1].f4,\n            m.m1s[1].f5,\n            m.m1s[1].f6, \n            m.m1s[1].f7\n        );\n\n        emit Msg1Part2( \n            m.m1s[1].f8, \n            m.m1s[1].f9[0],\n            m.m1s[1].f9[1],\n            m.m1s[1].f10[0],\n            m.m1s[1].f10[1]\n        );\n\n        // emit events of m2s[0]\n        emit Msg2Part1(\n            m.m2s[0].num,\n            m.m2s[0].addr,\n            m.m2s[0].addrPayable,\n            m.m2s[0].amt,\n            m.m2s[0].hash,\n            m.m2s[0].nums,\n            m.m2s[0].addrs,\n            m.m2s[0].addrPayables\n        );\n\n        emit Msg2Part2(\n            m.m2s[0].amts,\n            m.m2s[0].hashes,\n            m.m2s[0].ts,\n            m.m2s[0].tss\n        );\n\n        // emit events of m2s[1]\n        emit Msg2Part1(\n            m.m2s[1].num,\n            m.m2s[1].addr,\n            m.m2s[1].addrPayable,\n            m.m2s[1].amt,\n            m.m2s[1].hash,\n            m.m2s[1].nums,\n            m.m2s[1].addrs,\n            m.m2s[1].addrPayables\n        );\n\n        emit Msg2Part2(\n            m.m2s[1].amts,\n            m.m2s[1].hashes,\n            m.m2s[1].ts,\n            m.m2s[1].tss\n        );\n    }\n\n    function testMsg4(bytes memory raw) public {\n        PbMytest.Msg4 memory m = PbMytest.decMsg4(raw);\n\n        uint[] memory uintEnums = new uint[](m.enums.length);\n        for (uint i = 0; i < uintEnums.length; i++) { uintEnums[i] = uint(m.enums[i]); }\n\n        emit Msg4Info(\n            uint(m.enum1),\n            uint(m.enum2),\n            uintEnums\n        );\n    }\n    \n    function testImport(bytes memory raw) public {\n        PbB.B memory m = PbB.decB(raw);\n        emit DecodedB(\n            m.i.f1, \n            m.alist.length, \n            m.e, \n            m.elist.length\n        );\n    }\n}\n",
  "sourcePath": "/Users/sbacha/pb3-gen-sol/test/solidity/contracts/TestMain.sol",
  "compiler": {
    "name": "solc",
    "version": "0.5.16+commit.9c3226ce.Emscripten.clang"
  },
  "schemaVersion": "3.3.4",
  "updatedAt": "2021-02-24T10:14:32.764Z",
  "devdoc": {
    "methods": {}
  },
  "userdoc": {
    "methods": {}
  }
}